{
  "contractName": "DataAccess",
  "abi": [
    {
      "constant": true,
      "inputs": [
        {
          "name": "",
          "type": "bytes32"
        },
        {
          "name": "",
          "type": "bytes32"
        }
      ],
      "name": "rights",
      "outputs": [
        {
          "name": "read",
          "type": "bool"
        },
        {
          "name": "write",
          "type": "bool"
        },
        {
          "name": "admin",
          "type": "bool"
        },
        {
          "name": "created",
          "type": "uint256"
        },
        {
          "name": "expires",
          "type": "uint256"
        }
      ],
      "payable": false,
      "stateMutability": "view",
      "type": "function"
    },
    {
      "constant": true,
      "inputs": [],
      "name": "owner",
      "outputs": [
        {
          "name": "",
          "type": "address"
        }
      ],
      "payable": false,
      "stateMutability": "view",
      "type": "function"
    },
    {
      "constant": false,
      "inputs": [
        {
          "name": "newOwner",
          "type": "address"
        }
      ],
      "name": "transferOwnership",
      "outputs": [],
      "payable": false,
      "stateMutability": "nonpayable",
      "type": "function"
    },
    {
      "inputs": [
        {
          "name": "_dataDirectory",
          "type": "address"
        }
      ],
      "payable": false,
      "stateMutability": "nonpayable",
      "type": "constructor"
    },
    {
      "anonymous": false,
      "inputs": [
        {
          "indexed": false,
          "name": "folder",
          "type": "bytes32"
        },
        {
          "indexed": false,
          "name": "group",
          "type": "bytes32"
        },
        {
          "indexed": false,
          "name": "read",
          "type": "bool"
        },
        {
          "indexed": false,
          "name": "write",
          "type": "bool"
        },
        {
          "indexed": false,
          "name": "admin",
          "type": "bool"
        },
        {
          "indexed": false,
          "name": "created",
          "type": "uint256"
        },
        {
          "indexed": false,
          "name": "expires",
          "type": "uint256"
        }
      ],
      "name": "AccessChanged",
      "type": "event"
    },
    {
      "anonymous": false,
      "inputs": [
        {
          "indexed": true,
          "name": "previousOwner",
          "type": "address"
        },
        {
          "indexed": true,
          "name": "newOwner",
          "type": "address"
        }
      ],
      "name": "OwnershipTransferred",
      "type": "event"
    },
    {
      "constant": false,
      "inputs": [
        {
          "name": "folder",
          "type": "bytes32"
        },
        {
          "name": "group",
          "type": "bytes32"
        },
        {
          "name": "read",
          "type": "bool"
        },
        {
          "name": "write",
          "type": "bool"
        },
        {
          "name": "admin",
          "type": "bool"
        }
      ],
      "name": "changeAccess",
      "outputs": [],
      "payable": false,
      "stateMutability": "nonpayable",
      "type": "function"
    },
    {
      "constant": true,
      "inputs": [
        {
          "name": "folder",
          "type": "bytes32"
        },
        {
          "name": "group",
          "type": "bytes32"
        }
      ],
      "name": "checkAccess",
      "outputs": [
        {
          "name": "",
          "type": "bool[3]"
        }
      ],
      "payable": false,
      "stateMutability": "view",
      "type": "function"
    },
    {
      "constant": true,
      "inputs": [
        {
          "name": "folder",
          "type": "bytes32"
        },
        {
          "name": "group",
          "type": "bytes32"
        }
      ],
      "name": "recursivelyCheckAccess",
      "outputs": [
        {
          "name": "",
          "type": "bool[3]"
        }
      ],
      "payable": false,
      "stateMutability": "view",
      "type": "function"
    }
  ],
  "bytecode": "0x608060405234801561001057600080fd5b50604051602080610b1883398101806040528101908080519060200190929190505050336000806101000a81548173ffffffffffffffffffffffffffffffffffffffff021916908373ffffffffffffffffffffffffffffffffffffffff16021790555080600160006101000a81548173ffffffffffffffffffffffffffffffffffffffff021916908373ffffffffffffffffffffffffffffffffffffffff16021790555050610a54806100c46000396000f300608060405260043610610078576000357c0100000000000000000000000000000000000000000000000000000000900463ffffffff1680635af1befb1461007d5780638cf1ed16146100f85780638da5cb5b14610173578063cac7939a146101ca578063ecf9901d14610245578063f2fde38b146102a8575b600080fd5b34801561008957600080fd5b506100ba600480360381019080803560001916906020019092919080356000191690602001909291905050506102eb565b6040518082600360200280838360005b838110156100e55780820151818401526020810190506100ca565b5050505090500191505060405180910390f35b34801561010457600080fd5b50610135600480360381019080803560001916906020019092919080356000191690602001909291905050506103df565b604051808615151515815260200185151515158152602001841515151581526020018381526020018281526020019550505050505060405180910390f35b34801561017f57600080fd5b50610188610449565b604051808273ffffffffffffffffffffffffffffffffffffffff1673ffffffffffffffffffffffffffffffffffffffff16815260200191505060405180910390f35b3480156101d657600080fd5b506102076004803603810190808035600019169060200190929190803560001916906020019092919050505061046e565b6040518082600360200280838360005b83811015610232578082015181840152602081019050610217565b5050505090500191505060405180910390f35b34801561025157600080fd5b506102a660048036038101908080356000191690602001909291908035600019169060200190929190803515159060200190929190803515159060200190929190803515159060200190929190505050610715565b005b3480156102b457600080fd5b506102e9600480360381019080803573ffffffffffffffffffffffffffffffffffffffff16906020019092919050505061087a565b005b6102f36109cf565b6102fb6109f2565b6002600085600019166000191681526020019081526020016000206000846000191660001916815260200190815260200160002060a060405190810160405290816000820160009054906101000a900460ff161515151581526020016000820160019054906101000a900460ff161515151581526020016000820160029054906101000a900460ff161515151581526020016001820154815260200160028201548152505090506060604051908101604052808260000151151515158152602001826020015115151515815260200182604001511515151581525091505092915050565b6002602052816000526040600020602052806000526040600020600091509150508060000160009054906101000a900460ff16908060000160019054906101000a900460ff16908060000160029054906101000a900460ff16908060010154908060020154905085565b6000809054906101000a900473ffffffffffffffffffffffffffffffffffffffff1681565b6104766109cf565b61047e6109cf565b60006104886109cf565b61049286866102eb565b9250600160009054906101000a900473ffffffffffffffffffffffffffffffffffffffff1673ffffffffffffffffffffffffffffffffffffffff16631a7a0a06876040518263ffffffff167c0100000000000000000000000000000000000000000000000000000000028152600401808260001916600019168152602001915050602060405180830381600087803b15801561052d57600080fd5b505af1158015610541573d6000803e3d6000fd5b505050506040513d602081101561055757600080fd5b81019080805190602001909291905050501561070857600160009054906101000a900473ffffffffffffffffffffffffffffffffffffffff1673ffffffffffffffffffffffffffffffffffffffff16637071af84876040518263ffffffff167c0100000000000000000000000000000000000000000000000000000000028152600401808260001916600019168152602001915050602060405180830381600087803b15801561060657600080fd5b505af115801561061a573d6000803e3d6000fd5b505050506040513d602081101561063057600080fd5b8101908080519060200190929190505050915061064d828661046e565b905060606040519081016040528084600060038110151561066a57fe5b60200201518061068a575082600060038110151561068457fe5b60200201515b1515151581526020018460016003811015156106a257fe5b6020020151806106c257508260016003811015156106bc57fe5b60200201515b1515151581526020018460026003811015156106da57fe5b6020020151806106fa57508260026003811015156106f457fe5b60200201515b15151515815250935061070c565b8293505b50505092915050565b60a06040519081016040528084151581526020018315158152602001821515815260200142815260200160008152506002600087600019166000191681526020019081526020016000206000866000191660001916815260200190815260200160002060008201518160000160006101000a81548160ff02191690831515021790555060208201518160000160016101000a81548160ff02191690831515021790555060408201518160000160026101000a81548160ff02191690831515021790555060608201518160010155608082015181600201559050507f7cdd35a317d4d4008bdecc3857a571349441e6eba74d3bf92302e092da67194e8585858585426000604051808860001916600019168152602001876000191660001916815260200186151515158152602001851515151581526020018415151515815260200183815260200182815260200197505050505050505060405180910390a15050505050565b6000809054906101000a900473ffffffffffffffffffffffffffffffffffffffff1673ffffffffffffffffffffffffffffffffffffffff163373ffffffffffffffffffffffffffffffffffffffff161415156108d557600080fd5b600073ffffffffffffffffffffffffffffffffffffffff168173ffffffffffffffffffffffffffffffffffffffff161415151561091157600080fd5b8073ffffffffffffffffffffffffffffffffffffffff166000809054906101000a900473ffffffffffffffffffffffffffffffffffffffff1673ffffffffffffffffffffffffffffffffffffffff167f8be0079c531659141344cd1fd0a4f28419497f9722a3daafe3b4186f6b6457e060405160405180910390a3806000806101000a81548173ffffffffffffffffffffffffffffffffffffffff021916908373ffffffffffffffffffffffffffffffffffffffff16021790555050565b606060405190810160405280600390602082028038833980820191505090505090565b60a060405190810160405280600015158152602001600015158152602001600015158152602001600081526020016000815250905600a165627a7a72305820dc8eada0a62dd2fc8b80141029ea468e45a19eed374cd2764a2c7cf0ae4b26d90029",
  "source": "pragma solidity ^0.4.23;\n\nimport 'openzeppelin-solidity/contracts/ownership/Ownable.sol';\nimport './DataDirectory.sol';\n\n\ncontract DataAccess is Ownable {\n\n    event AccessChanged(bytes32 folder, bytes32 group, bool read, bool write, bool admin, uint256 created, uint256 expires);\n\n    DataDirectory dataDirectory;\n\n    constructor(DataDirectory _dataDirectory) public {\n        dataDirectory = _dataDirectory;\n    }\n\n    struct Access {\n        bool read;\n        bool write;\n        bool admin;\n        uint256 created;\n        uint256 expires;\n    }\n\n    mapping (bytes32 => mapping(bytes32 => Access)) public rights;\n    uint256 count;\n\n    function changeAccess(bytes32 folder, bytes32 group, bool read, bool write, bool admin) public {\n        rights[folder][group] = Access(read, write, admin, now, 0);\n        emit AccessChanged(folder, group,read, write, admin, now, 0);\n    }\n\n    function checkAccess(bytes32 folder, bytes32 group) public view returns(bool[3]) {\n        Access memory access = rights[folder][group];\n        return [access.read, access.write, access.admin];\n    }\n\n    function recursivelyCheckAccess(bytes32 folder, bytes32 group) public view returns(bool[3]) {\n        bool[3] memory currentAccess = checkAccess(folder, group);\n        if (dataDirectory.hasParent(folder)) {\n            bytes32 parentFolder = dataDirectory.getParentId(folder);\n            bool[3] memory parentAccess = recursivelyCheckAccess(parentFolder, group);\n            return [currentAccess[0] || parentAccess[0], currentAccess[1] || parentAccess[1], currentAccess[2] || parentAccess[2]];\n        } else {\n            return currentAccess;\n        }\n    }\n\n}",
  "sourcePath": "/Users/kuba/projects/alice/selective-disclosure/contracts/DataAccess.sol",
  "compiler": {
    "name": "solc",
    "version": "0.4.24+commit.e67f0147.Emscripten.clang"
  },
  "schemaVersion": "2.0.0",
  "updatedAt": "2018-06-15T15:28:44.757Z"
}