{
  "contractName": "DataDirectory",
  "abi": [
    {
      "constant": true,
      "inputs": [],
      "name": "owner",
      "outputs": [
        {
          "name": "",
          "type": "address"
        }
      ],
      "payable": false,
      "stateMutability": "view",
      "type": "function"
    },
    {
      "constant": true,
      "inputs": [
        {
          "name": "",
          "type": "bytes32"
        }
      ],
      "name": "elements",
      "outputs": [
        {
          "name": "parentId",
          "type": "bytes32"
        },
        {
          "name": "reference",
          "type": "bytes"
        },
        {
          "name": "fullName",
          "type": "string"
        },
        {
          "name": "isFolder",
          "type": "bool"
        }
      ],
      "payable": false,
      "stateMutability": "view",
      "type": "function"
    },
    {
      "constant": false,
      "inputs": [
        {
          "name": "newOwner",
          "type": "address"
        }
      ],
      "name": "transferOwnership",
      "outputs": [],
      "payable": false,
      "stateMutability": "nonpayable",
      "type": "function"
    },
    {
      "inputs": [],
      "payable": false,
      "stateMutability": "nonpayable",
      "type": "constructor"
    },
    {
      "anonymous": false,
      "inputs": [
        {
          "indexed": false,
          "name": "user",
          "type": "address"
        },
        {
          "indexed": false,
          "name": "parentId",
          "type": "bytes32"
        },
        {
          "indexed": false,
          "name": "fullName",
          "type": "string"
        }
      ],
      "name": "AddedElement",
      "type": "event"
    },
    {
      "anonymous": false,
      "inputs": [
        {
          "indexed": true,
          "name": "previousOwner",
          "type": "address"
        },
        {
          "indexed": true,
          "name": "newOwner",
          "type": "address"
        }
      ],
      "name": "OwnershipTransferred",
      "type": "event"
    },
    {
      "constant": true,
      "inputs": [
        {
          "name": "parentId",
          "type": "bytes32"
        },
        {
          "name": "fullName",
          "type": "string"
        }
      ],
      "name": "getElementId",
      "outputs": [
        {
          "name": "",
          "type": "bytes32"
        }
      ],
      "payable": false,
      "stateMutability": "pure",
      "type": "function"
    },
    {
      "constant": false,
      "inputs": [
        {
          "name": "parentId",
          "type": "bytes32"
        },
        {
          "name": "fullName",
          "type": "string"
        },
        {
          "name": "isFolder",
          "type": "bool"
        }
      ],
      "name": "addElement",
      "outputs": [],
      "payable": false,
      "stateMutability": "nonpayable",
      "type": "function"
    },
    {
      "constant": true,
      "inputs": [
        {
          "name": "elementId",
          "type": "bytes32"
        }
      ],
      "name": "getChildrenCount",
      "outputs": [
        {
          "name": "",
          "type": "uint256"
        }
      ],
      "payable": false,
      "stateMutability": "view",
      "type": "function"
    },
    {
      "constant": true,
      "inputs": [
        {
          "name": "elementId",
          "type": "bytes32"
        }
      ],
      "name": "isFolder",
      "outputs": [
        {
          "name": "",
          "type": "bool"
        }
      ],
      "payable": false,
      "stateMutability": "view",
      "type": "function"
    },
    {
      "constant": true,
      "inputs": [
        {
          "name": "elementId",
          "type": "bytes32"
        }
      ],
      "name": "getFullName",
      "outputs": [
        {
          "name": "",
          "type": "string"
        }
      ],
      "payable": false,
      "stateMutability": "view",
      "type": "function"
    },
    {
      "constant": true,
      "inputs": [
        {
          "name": "elementId",
          "type": "bytes32"
        },
        {
          "name": "index",
          "type": "uint256"
        }
      ],
      "name": "getChildIdAt",
      "outputs": [
        {
          "name": "",
          "type": "bytes32"
        }
      ],
      "payable": false,
      "stateMutability": "view",
      "type": "function"
    },
    {
      "constant": true,
      "inputs": [
        {
          "name": "elementId",
          "type": "bytes32"
        }
      ],
      "name": "getParentId",
      "outputs": [
        {
          "name": "",
          "type": "bytes32"
        }
      ],
      "payable": false,
      "stateMutability": "view",
      "type": "function"
    },
    {
      "constant": true,
      "inputs": [
        {
          "name": "elementId",
          "type": "bytes32"
        }
      ],
      "name": "hasParent",
      "outputs": [
        {
          "name": "",
          "type": "bool"
        }
      ],
      "payable": false,
      "stateMutability": "view",
      "type": "function"
    }
  ],
  "bytecode": "0x608060405234801561001057600080fd5b50336000806101000a81548173ffffffffffffffffffffffffffffffffffffffff021916908373ffffffffffffffffffffffffffffffffffffffff16021790555060018002600160007f726f6f74000000000000000000000000000000000000000000000000000000006000191681526020019081526020016000206000018160001916905550610e9d806100a66000396000f3006080604052600436106100af576000357c0100000000000000000000000000000000000000000000000000000000900463ffffffff1680631a7a0a06146100b457806344830e46146100fd5780637071af841461019057806378c83f77146101dd5780638da5cb5b146102605780638e0b182d146102b7578063b1aea93d1461030e578063c32100b61461043e578063d28c735514610487578063f2fde38b14610531578063f7a5242714610574575b600080fd5b3480156100c057600080fd5b506100e360048036038101908080356000191690602001909291905050506105b9565b604051808215151515815260200191505060405180910390f35b34801561010957600080fd5b506101726004803603810190808035600019169060200190929190803590602001908201803590602001908080601f01602080910402602001604051908101604052809392919081815260200183838082843782019150505050505091929192905050506105d5565b60405180826000191660001916815260200191505060405180910390f35b34801561019c57600080fd5b506101bf6004803603810190808035600019169060200190929190505050610642565b60405180826000191660001916815260200191505060405180910390f35b3480156101e957600080fd5b5061025e6004803603810190808035600019169060200190929190803590602001908201803590602001908080601f016020809104026020016040519081016040528093929190818152602001838380828437820191505050505050919291929080351515906020019092919050505061066a565b005b34801561026c57600080fd5b50610275610985565b604051808273ffffffffffffffffffffffffffffffffffffffff1673ffffffffffffffffffffffffffffffffffffffff16815260200191505060405180910390f35b3480156102c357600080fd5b506102f06004803603810190808035600019169060200190929190803590602001909291905050506109aa565b60405180826000191660001916815260200191505060405180910390f35b34801561031a57600080fd5b5061033d60048036038101908080356000191690602001909291905050506109ea565b604051808560001916600019168152602001806020018060200184151515158152602001838103835286818151815260200191508051906020019080838360005b8381101561039957808201518184015260208101905061037e565b50505050905090810190601f1680156103c65780820380516001836020036101000a031916815260200191505b50838103825285818151815260200191508051906020019080838360005b838110156103ff5780820151818401526020810190506103e4565b50505050905090810190601f16801561042c5780820380516001836020036101000a031916815260200191505b50965050505050505060405180910390f35b34801561044a57600080fd5b5061046d6004803603810190808035600019169060200190929190505050610b57565b604051808215151515815260200191505060405180910390f35b34801561049357600080fd5b506104b66004803603810190808035600019169060200190929190505050610b8c565b6040518080602001828103825283818151815260200191508051906020019080838360005b838110156104f65780820151818401526020810190506104db565b50505050905090810190601f1680156105235780820380516001836020036101000a031916815260200191505b509250505060405180910390f35b34801561053d57600080fd5b50610572600480360381019080803573ffffffffffffffffffffffffffffffffffffffff169060200190929190505050610c4c565b005b34801561058057600080fd5b506105a36004803603810190808035600019169060200190929190505050610da1565b6040518082815260200191505060405180910390f35b6000600180026105c883610642565b6000191614159050919050565b6000816040518082805190602001908083835b60208310151561060d57805182526020820191506020810190506020830392506105e8565b6001836020036101000a0380198251168184511680821785525050505050509050019150506040518091039020905092915050565b6000600160008360001916600019168152602001908152602001600020600001549050919050565b60003073ffffffffffffffffffffffffffffffffffffffff166344830e4685856040518363ffffffff167c010000000000000000000000000000000000000000000000000000000002815260040180836000191660001916815260200180602001828103825283818151815260200191508051906020019080838360005b838110156107035780820151818401526020810190506106e8565b50505050905090810190601f1680156107305780820380516001836020036101000a031916815260200191505b509350505050602060405180830381600087803b15801561075057600080fd5b505af1158015610764573d6000803e3d6000fd5b505050506040513d602081101561077a57600080fd5b81019080805190602001909291905050509050600060010260016000836000191660001916815260200190815260200160002060000154600019161415156107c157600080fd5b83600160008360001916600019168152602001908152602001600020600001816000191690555082600160008360001916600019168152602001908152602001600020600201908051906020019061081a929190610dcc565b508160016000836000191660001916815260200190815260200160002060030160006101000a81548160ff0219169083151502179055506001600085600019166000191681526020019081526020016000206004018190806001815401808255809150509060018203906000526020600020016000909192909190915090600019169055507f084f2c23f89878a86b89cae100cb90475135f65508829b0c64a973d9ba247515338585604051808473ffffffffffffffffffffffffffffffffffffffff1673ffffffffffffffffffffffffffffffffffffffff168152602001836000191660001916815260200180602001828103825283818151815260200191508051906020019080838360005b83811015610943578082015181840152602081019050610928565b50505050905090810190601f1680156109705780820380516001836020036101000a031916815260200191505b5094505050505060405180910390a150505050565b6000809054906101000a900473ffffffffffffffffffffffffffffffffffffffff1681565b6000600160008460001916600019168152602001908152602001600020600401828154811015156109d757fe5b9060005260206000200154905092915050565b6001602052806000526040600020600091509050806000015490806001018054600181600116156101000203166002900480601f016020809104026020016040519081016040528092919081815260200182805460018160011615610100020316600290048015610a9c5780601f10610a7157610100808354040283529160200191610a9c565b820191906000526020600020905b815481529060010190602001808311610a7f57829003601f168201915b505050505090806002018054600181600116156101000203166002900480601f016020809104026020016040519081016040528092919081815260200182805460018160011615610100020316600290048015610b3a5780601f10610b0f57610100808354040283529160200191610b3a565b820191906000526020600020905b815481529060010190602001808311610b1d57829003601f168201915b5050505050908060030160009054906101000a900460ff16905084565b600060016000836000191660001916815260200190815260200160002060030160009054906101000a900460ff169050919050565b60606001600083600019166000191681526020019081526020016000206002018054600181600116156101000203166002900480601f016020809104026020016040519081016040528092919081815260200182805460018160011615610100020316600290048015610c405780601f10610c1557610100808354040283529160200191610c40565b820191906000526020600020905b815481529060010190602001808311610c2357829003601f168201915b50505050509050919050565b6000809054906101000a900473ffffffffffffffffffffffffffffffffffffffff1673ffffffffffffffffffffffffffffffffffffffff163373ffffffffffffffffffffffffffffffffffffffff16141515610ca757600080fd5b600073ffffffffffffffffffffffffffffffffffffffff168173ffffffffffffffffffffffffffffffffffffffff1614151515610ce357600080fd5b8073ffffffffffffffffffffffffffffffffffffffff166000809054906101000a900473ffffffffffffffffffffffffffffffffffffffff1673ffffffffffffffffffffffffffffffffffffffff167f8be0079c531659141344cd1fd0a4f28419497f9722a3daafe3b4186f6b6457e060405160405180910390a3806000806101000a81548173ffffffffffffffffffffffffffffffffffffffff021916908373ffffffffffffffffffffffffffffffffffffffff16021790555050565b6000600160008360001916600019168152602001908152602001600020600401805490509050919050565b828054600181600116156101000203166002900490600052602060002090601f016020900481019282601f10610e0d57805160ff1916838001178555610e3b565b82800160010185558215610e3b579182015b82811115610e3a578251825591602001919060010190610e1f565b5b509050610e489190610e4c565b5090565b610e6e91905b80821115610e6a576000816000905550600101610e52565b5090565b905600a165627a7a7230582070eeed2cde81fccb2baf79d4cf1b9aa97c09cd391f0419b9727427f3b9cb3bf80029",
  "source": "pragma solidity ^0.4.23;\n\nimport 'openzeppelin-solidity/contracts/ownership/Ownable.sol';\n\ncontract DataDirectory is Ownable {\n\n    event AddedElement(address user, bytes32 parentId, string fullName);\n\n    struct Element {\n        bytes32 parentId;\n        bytes reference;\n        string fullName;\n        bool isFolder;\n        bytes32[] children;\n    }\n\n    mapping (bytes32 => Element) public elements;\n    uint256 count;\n\n\n    constructor() public {\n        elements[\"root\"].parentId = 0x1;\n    }\n\n    function getElementId(bytes32 parentId, string fullName) public pure returns(bytes32) {\n        return keccak256(fullName);\n    }\n\n    function addElement(bytes32 parentId, string fullName, bool isFolder) public {\n        bytes32 id = this.getElementId(parentId, fullName);\n        require(elements[id].parentId == 0);\n        elements[id].parentId = parentId;\n        elements[id].fullName = fullName;\n        elements[id].isFolder = isFolder;\n        elements[parentId].children.push(id);\n        emit AddedElement(msg.sender, parentId, fullName);\n    }\n\n    function getChildrenCount(bytes32 elementId) public view returns(uint256) {\n        return elements[elementId].children.length;\n    }\n\n    function isFolder(bytes32 elementId) public view returns(bool) {\n        return elements[elementId].isFolder;\n    }\n\n    function getFullName(bytes32 elementId) public view returns(string) {\n        return elements[elementId].fullName;\n    }\n\n    function getChildIdAt(bytes32 elementId, uint256 index) public view returns(bytes32) {\n        return elements[elementId].children[index];\n    }\n\n    function getParentId(bytes32 elementId) public view returns(bytes32) {\n        return elements[elementId].parentId;\n    }\n\n    function hasParent(bytes32 elementId) public view returns(bool) {\n        return getParentId(elementId) != 0x1;\n    }\n\n}",
  "sourcePath": "/Users/kuba/projects/alice/selective-disclosure/contracts/DataDirectory.sol",
  "compiler": {
    "name": "solc",
    "version": "0.4.24+commit.e67f0147.Emscripten.clang"
  },
  "schemaVersion": "2.0.0",
  "updatedAt": "2018-06-15T15:28:44.759Z"
}