{
  "contractName": "UsersDirectory",
  "abi": [
    {
      "constant": true,
      "inputs": [],
      "name": "owner",
      "outputs": [
        {
          "name": "",
          "type": "address"
        }
      ],
      "payable": false,
      "stateMutability": "view",
      "type": "function"
    },
    {
      "constant": true,
      "inputs": [
        {
          "name": "",
          "type": "bytes32"
        }
      ],
      "name": "elements",
      "outputs": [
        {
          "name": "parentId",
          "type": "bytes32"
        },
        {
          "name": "fullName",
          "type": "string"
        }
      ],
      "payable": false,
      "stateMutability": "view",
      "type": "function"
    },
    {
      "constant": false,
      "inputs": [
        {
          "name": "newOwner",
          "type": "address"
        }
      ],
      "name": "transferOwnership",
      "outputs": [],
      "payable": false,
      "stateMutability": "nonpayable",
      "type": "function"
    },
    {
      "inputs": [],
      "payable": false,
      "stateMutability": "nonpayable",
      "type": "constructor"
    },
    {
      "anonymous": false,
      "inputs": [
        {
          "indexed": false,
          "name": "user",
          "type": "address"
        },
        {
          "indexed": false,
          "name": "parentId",
          "type": "bytes32"
        },
        {
          "indexed": false,
          "name": "fullName",
          "type": "string"
        }
      ],
      "name": "AddedElement",
      "type": "event"
    },
    {
      "anonymous": false,
      "inputs": [
        {
          "indexed": false,
          "name": "admin",
          "type": "address"
        },
        {
          "indexed": false,
          "name": "parentId",
          "type": "bytes32"
        },
        {
          "indexed": false,
          "name": "user",
          "type": "address"
        }
      ],
      "name": "AddedUser",
      "type": "event"
    },
    {
      "anonymous": false,
      "inputs": [
        {
          "indexed": true,
          "name": "previousOwner",
          "type": "address"
        },
        {
          "indexed": true,
          "name": "newOwner",
          "type": "address"
        }
      ],
      "name": "OwnershipTransferred",
      "type": "event"
    },
    {
      "constant": true,
      "inputs": [
        {
          "name": "parentId",
          "type": "bytes32"
        },
        {
          "name": "fullName",
          "type": "string"
        }
      ],
      "name": "getElementId",
      "outputs": [
        {
          "name": "",
          "type": "bytes32"
        }
      ],
      "payable": false,
      "stateMutability": "pure",
      "type": "function"
    },
    {
      "constant": false,
      "inputs": [
        {
          "name": "parentId",
          "type": "bytes32"
        },
        {
          "name": "fullName",
          "type": "string"
        }
      ],
      "name": "addElement",
      "outputs": [],
      "payable": false,
      "stateMutability": "nonpayable",
      "type": "function"
    },
    {
      "constant": true,
      "inputs": [
        {
          "name": "elementId",
          "type": "bytes32"
        }
      ],
      "name": "getChildrenCount",
      "outputs": [
        {
          "name": "",
          "type": "uint256"
        }
      ],
      "payable": false,
      "stateMutability": "view",
      "type": "function"
    },
    {
      "constant": true,
      "inputs": [
        {
          "name": "elementId",
          "type": "bytes32"
        }
      ],
      "name": "getFullName",
      "outputs": [
        {
          "name": "",
          "type": "string"
        }
      ],
      "payable": false,
      "stateMutability": "view",
      "type": "function"
    },
    {
      "constant": true,
      "inputs": [
        {
          "name": "elementId",
          "type": "bytes32"
        },
        {
          "name": "index",
          "type": "uint256"
        }
      ],
      "name": "getChildIdAt",
      "outputs": [
        {
          "name": "",
          "type": "bytes32"
        }
      ],
      "payable": false,
      "stateMutability": "view",
      "type": "function"
    },
    {
      "constant": false,
      "inputs": [
        {
          "name": "elementId",
          "type": "bytes32"
        },
        {
          "name": "user",
          "type": "address"
        }
      ],
      "name": "addUser",
      "outputs": [],
      "payable": false,
      "stateMutability": "nonpayable",
      "type": "function"
    },
    {
      "constant": true,
      "inputs": [
        {
          "name": "elementId",
          "type": "bytes32"
        }
      ],
      "name": "getUsersCount",
      "outputs": [
        {
          "name": "",
          "type": "uint256"
        }
      ],
      "payable": false,
      "stateMutability": "view",
      "type": "function"
    },
    {
      "constant": true,
      "inputs": [
        {
          "name": "elementId",
          "type": "bytes32"
        },
        {
          "name": "index",
          "type": "uint256"
        }
      ],
      "name": "getUserAt",
      "outputs": [
        {
          "name": "",
          "type": "address"
        }
      ],
      "payable": false,
      "stateMutability": "view",
      "type": "function"
    }
  ],
  "bytecode": "0x608060405234801561001057600080fd5b50336000806101000a81548173ffffffffffffffffffffffffffffffffffffffff021916908373ffffffffffffffffffffffffffffffffffffffff16021790555060018002600160007f726f6f742d7573657273000000000000000000000000000000000000000000006000191681526020019081526020016000206000018160001916905550610ea3806100a66000396000f3006080604052600436106100af576000357c0100000000000000000000000000000000000000000000000000000000900463ffffffff16806344830e46146100b45780638da5cb5b146101475780638e0b182d1461019e57806394f442c0146101f55780639c50e5a91461026c578063aa9c5426146102e7578063b1aea93d14610338578063d28c7355146103f1578063de0ef9ea1461049b578063f2fde38b146104e0578063f7a5242714610523575b600080fd5b3480156100c057600080fd5b506101296004803603810190808035600019169060200190929190803590602001908201803590602001908080601f0160208091040260200160405190810160405280939291908181526020018383808284378201915050505050509192919290505050610568565b60405180826000191660001916815260200191505060405180910390f35b34801561015357600080fd5b5061015c6105d5565b604051808273ffffffffffffffffffffffffffffffffffffffff1673ffffffffffffffffffffffffffffffffffffffff16815260200191505060405180910390f35b3480156101aa57600080fd5b506101d76004803603810190808035600019169060200190929190803590602001909291905050506105fa565b60405180826000191660001916815260200191505060405180910390f35b34801561020157600080fd5b5061026a6004803603810190808035600019169060200190929190803590602001908201803590602001908080601f016020809104026020016040519081016040528093929190818152602001838380828437820191505050505050919291929050505061063a565b005b34801561027857600080fd5b506102a560048036038101908080356000191690602001909291908035906020019092919050505061091e565b604051808273ffffffffffffffffffffffffffffffffffffffff1673ffffffffffffffffffffffffffffffffffffffff16815260200191505060405180910390f35b3480156102f357600080fd5b506103366004803603810190808035600019169060200190929190803573ffffffffffffffffffffffffffffffffffffffff16906020019092919050505061097e565b005b34801561034457600080fd5b506103676004803603810190808035600019169060200190929190505050610aab565b60405180836000191660001916815260200180602001828103825283818151815260200191508051906020019080838360005b838110156103b557808201518184015260208101905061039a565b50505050905090810190601f1680156103e25780820380516001836020036101000a031916815260200191505b50935050505060405180910390f35b3480156103fd57600080fd5b506104206004803603810190808035600019169060200190929190505050610b67565b6040518080602001828103825283818151815260200191508051906020019080838360005b83811015610460578082015181840152602081019050610445565b50505050905090810190601f16801561048d5780820380516001836020036101000a031916815260200191505b509250505060405180910390f35b3480156104a757600080fd5b506104ca6004803603810190808035600019169060200190929190505050610c27565b6040518082815260200191505060405180910390f35b3480156104ec57600080fd5b50610521600480360381019080803573ffffffffffffffffffffffffffffffffffffffff169060200190929190505050610c52565b005b34801561052f57600080fd5b506105526004803603810190808035600019169060200190929190505050610da7565b6040518082815260200191505060405180910390f35b6000816040518082805190602001908083835b6020831015156105a0578051825260208201915060208101905060208303925061057b565b6001836020036101000a0380198251168184511680821785525050505050509050019150506040518091039020905092915050565b6000809054906101000a900473ffffffffffffffffffffffffffffffffffffffff1681565b60006001600084600019166000191681526020019081526020016000206002018281548110151561062757fe5b9060005260206000200154905092915050565b60003073ffffffffffffffffffffffffffffffffffffffff166344830e4684846040518363ffffffff167c010000000000000000000000000000000000000000000000000000000002815260040180836000191660001916815260200180602001828103825283818151815260200191508051906020019080838360005b838110156106d35780820151818401526020810190506106b8565b50505050905090810190601f1680156107005780820380516001836020036101000a031916815260200191505b509350505050602060405180830381600087803b15801561072057600080fd5b505af1158015610734573d6000803e3d6000fd5b505050506040513d602081101561074a57600080fd5b810190808051906020019092919050505090506000600102600160008360001916600019168152602001908152602001600020600001546000191614151561079157600080fd5b8260016000836000191660001916815260200190815260200160002060000181600019169055508160016000836000191660001916815260200190815260200160002060010190805190602001906107ea929190610dd2565b506001600084600019166000191681526020019081526020016000206002018190806001815401808255809150509060018203906000526020600020016000909192909190915090600019169055507f084f2c23f89878a86b89cae100cb90475135f65508829b0c64a973d9ba247515338484604051808473ffffffffffffffffffffffffffffffffffffffff1673ffffffffffffffffffffffffffffffffffffffff168152602001836000191660001916815260200180602001828103825283818151815260200191508051906020019080838360005b838110156108dd5780820151818401526020810190506108c2565b50505050905090810190601f16801561090a5780820380516001836020036101000a031916815260200191505b5094505050505060405180910390a1505050565b60006001600084600019166000191681526020019081526020016000206003018281548110151561094b57fe5b9060005260206000200160009054906101000a900473ffffffffffffffffffffffffffffffffffffffff16905092915050565b6001600083600019166000191681526020019081526020016000206003018190806001815401808255809150509060018203906000526020600020016000909192909190916101000a81548173ffffffffffffffffffffffffffffffffffffffff021916908373ffffffffffffffffffffffffffffffffffffffff160217905550507ffb1f7a46243333ad4ad16fedb8f7b8d1c0ce08739a08200a2d9456cda909ae20338383604051808473ffffffffffffffffffffffffffffffffffffffff1673ffffffffffffffffffffffffffffffffffffffff16815260200183600019166000191681526020018273ffffffffffffffffffffffffffffffffffffffff1673ffffffffffffffffffffffffffffffffffffffff168152602001935050505060405180910390a15050565b6001602052806000526040600020600091509050806000015490806001018054600181600116156101000203166002900480601f016020809104026020016040519081016040528092919081815260200182805460018160011615610100020316600290048015610b5d5780601f10610b3257610100808354040283529160200191610b5d565b820191906000526020600020905b815481529060010190602001808311610b4057829003601f168201915b5050505050905082565b60606001600083600019166000191681526020019081526020016000206001018054600181600116156101000203166002900480601f016020809104026020016040519081016040528092919081815260200182805460018160011615610100020316600290048015610c1b5780601f10610bf057610100808354040283529160200191610c1b565b820191906000526020600020905b815481529060010190602001808311610bfe57829003601f168201915b50505050509050919050565b6000600160008360001916600019168152602001908152602001600020600301805490509050919050565b6000809054906101000a900473ffffffffffffffffffffffffffffffffffffffff1673ffffffffffffffffffffffffffffffffffffffff163373ffffffffffffffffffffffffffffffffffffffff16141515610cad57600080fd5b600073ffffffffffffffffffffffffffffffffffffffff168173ffffffffffffffffffffffffffffffffffffffff1614151515610ce957600080fd5b8073ffffffffffffffffffffffffffffffffffffffff166000809054906101000a900473ffffffffffffffffffffffffffffffffffffffff1673ffffffffffffffffffffffffffffffffffffffff167f8be0079c531659141344cd1fd0a4f28419497f9722a3daafe3b4186f6b6457e060405160405180910390a3806000806101000a81548173ffffffffffffffffffffffffffffffffffffffff021916908373ffffffffffffffffffffffffffffffffffffffff16021790555050565b6000600160008360001916600019168152602001908152602001600020600201805490509050919050565b828054600181600116156101000203166002900490600052602060002090601f016020900481019282601f10610e1357805160ff1916838001178555610e41565b82800160010185558215610e41579182015b82811115610e40578251825591602001919060010190610e25565b5b509050610e4e9190610e52565b5090565b610e7491905b80821115610e70576000816000905550600101610e58565b5090565b905600a165627a7a72305820d95d5d511e77b250469acf2dd453f9449e1a3f5db5ea5982250f673106be1f480029",
  "source": "pragma solidity ^0.4.23;\n\nimport 'openzeppelin-solidity/contracts/ownership/Ownable.sol';\n\ncontract UsersDirectory is Ownable {\n\n    event AddedElement(address user, bytes32 parentId, string fullName);\n    event AddedUser(address admin, bytes32 parentId, address user);\n\n    struct Element {\n        bytes32 parentId;\n        string fullName;\n        bytes32[] children;\n        address[] users;\n    }\n\n    mapping (bytes32 => Element) public elements;\n    uint256 count;\n\n\n    constructor() public {\n        elements[\"root-users\"].parentId = 0x1;\n    }\n\n    function getElementId(bytes32 parentId, string fullName) public pure returns(bytes32) {\n        return keccak256(fullName);\n    }\n\n    function addElement(bytes32 parentId, string fullName) public {\n        bytes32 id = this.getElementId(parentId, fullName);\n        require(elements[id].parentId == 0);\n        elements[id].parentId = parentId;\n        elements[id].fullName = fullName;\n        elements[parentId].children.push(id);\n        emit AddedElement(msg.sender, parentId, fullName);\n    }\n\n    function getChildrenCount(bytes32 elementId) public view returns(uint256) {\n        return elements[elementId].children.length;\n    }\n\n    function getFullName(bytes32 elementId) public view returns(string) {\n        return elements[elementId].fullName;\n    }\n\n    function getChildIdAt(bytes32 elementId, uint256 index) public view returns(bytes32) {\n        return elements[elementId].children[index];\n    }\n\n    function addUser(bytes32 elementId, address user) public {\n        elements[elementId].users.push(user);\n        emit AddedUser(msg.sender, elementId, user);\n    }\n\n    function getUsersCount(bytes32 elementId) public view returns(uint256) {\n        return elements[elementId].users.length;\n    }\n\n    function getUserAt(bytes32 elementId, uint256 index) public view returns(address) {\n        return elements[elementId].users[index];\n    }\n\n}",
  "sourcePath": "/Users/kuba/projects/alice/selective-disclosure/contracts/UsersDirectory.sol",
  "compiler": {
    "name": "solc",
    "version": "0.4.24+commit.e67f0147.Emscripten.clang"
  },
  "schemaVersion": "2.0.0",
  "updatedAt": "2018-06-15T15:28:44.761Z"
}